:060000000000803112280F
:200008008A0170081D000B1D0F280630200095000B11A00ADF211600F00009007326F030E0
:2000280086002030870070302100990098012200960121001A1F1D288B1723008C012B2073
:2000480045200021D4215722D4222828080021001508C0392000AE002E0814382100950019
:200068000B118B16080020001600AE002008AF0020002F082002B0002E083002031C3C28E4
:200088000800063021008C04F93022008C05080002302000AE002000AE0B4F28080020000D
:2000A8001600B10021000C1100000000000000008C104C20200031081D006F2008002100FD
:2000C8000C114C2021008C1400000000000000000C154C20080020001600B4000830B50062
:2000E8002000B41F7A2821000C157C2821000C114C2021008C144C2021008C102000B435E0
:20010800B50B742821000C154C2021008C144C2020000C1D9028B50A21008C1020003508C6
:20012800F000080020001600B1000830B2004C2021008C144C202000B3350C1DA428B30A9B
:2001480021008C102000B20B9B2831080319B52821000C114C2021008C144C2021008C1074
:200168000C1520003308F000080020001600B7001600B600B0303707B80038081D001F21D7
:2001880020003608B800B80E0F30B805381638081D001F21200036080F39B80038143808AA
:2001A8001D001F2108002000B801B6010430200036020318FF28B0303607B90039081D0040
:2001C8001F2101301D001F2110301D001F212000B7018030200037020318FC2818301D0027
:2001E80020301D0001301D002E212000B70AED282000B60ADA28080064301D0037202000E5
:20020800BA011E3020003A0203181A2935303A07BB008D307F3DBC003B0884003C088500ED
:20022800003F1D001F212000BA0A052964301D003720D720080020001600C10078301D0045
:20024800532000301D006F20200041081D006F2063200800243084002030850023000D26A4
:2002680078301D00532040301D006F202000C303430A03194E294108C4004208C500C10A75
:200288000319C20A4408840045088500003F1D006F203A29632008001E308400203085004C
:2002A80024000D2620003C0884003D088500003F03198E293A081D003B081D00B920200063
:2002C8003C08BE003D08BF00BC0A0319BD0A3E0884003F08850020300002BE00013100018E
:2002E8007F3BBF0006301D0000301D001E308400203085001F260D30BE078B30BF3D3E08F2
:200308001D003F081D0006301D002E2106302000BA07562908001D3084002030850023004B
:200328000D26BE01043020003E020318AF293A081D003E081D00B92020003B081D003C08DD
:200348001D0013301D002E2113302000BB070030BC3DBE0A962908001F3084002030850044
:2003680025000D26BF01023020003F020318D3293A081D003F083B07C00040081D00B920CD
:2003880020003C081D003D081D003E081D002E2120003E08BC070030BD3DBF0AB7290800BC
:2003A80021009513313024008C0421008C042000A101A301080020000C083139C6002308A9
:2003C8000319EE29013A0319FA292308023A0319232A512A20004608313A0319512A46085F
:2003E800A4000130A3002008A200512A2000240846060319012AA301512A200022082002CE
:20040800C70014304702031C512AA41A0D2A0130A1002000241A122A0230A1002000241856
:20042800172A0330A10002302000A3002008A2005830A6000230A7002108A500512A200070
:200448004608313A0319482A2008A200260827040319312AFF30A607A73D2000260827047A
:20046800031D512A2508013A0319512A6430A600A7012508023A031D442A0430A100512AB1
:2004880005302000A100512A200022082002C70014304702031C512AA30108002000210894
:2004A800A101F000080022008C1221008C1264301D00372021008C1664301D0037206622C0
:2004C8006622080020008C1A6D2A05301D003720662A52222000A801BF253F302000A90095
:2004E8001D00D32520002A081D002B081D00E925DC2305301D0000301D00D7301D008A3096
:200508001D000B301D00B02112301D0000301D00ED301D008A301D0010301D00B0210A3068
:200528001D0003301D0053301D008D301D005021080020008C1AA42A05301D0037209D2A4F
:20054800522201302000A800BF253F302000A9001D00D32520002C081D002D081D00E92524
:20056800DC2300301D001D00B7301D008A301D0010301D00B02112301D0000301D00ED3038
:200588001D008A301D0010301D00B0210A301D0003301D0057301D008D301D005021080093
:2005A800522270082000C8004808013A0319ED2A4808023A0319F62A4808043A0319F62A0F
:2005C8004808033A0319682B4808053A0319682BDB2BD72020002808031DF42A9D22DB2B49
:2005E8006622DB2B20002808031D312B32301D0000301D002A08F0002B08F10001303426FC
:200608007008C9004808043A031D152B4908323CCA0000307F3BCB004A08AA074B08AB3D27
:200628001A2B0A302000AA070030AB3D623020002A02F0002A302B3BF00403190310031C7A
:20064800292B6230AA002A30AB0020002A081D002B081D00E925DC23DB2B0A301D000030A4
:200668001D0020002C08F0002D08F100013034267008C9004808043A031D4D2B49080A3C62
:20068800CA0000307F3BCB004A08AC074B08AD3D512B2000AC0A0319AD0A723020002C027C
:2006A800F00006302D3BF00403190310031C602B7230AC000630AD0020002C081D002D0800
:2006C8001D00E925DC23DB2B20002808031DA42B32301D0000301D002A08F0002B08F10091
:2006E800013034267008C9004808053A031D8C2B49080319812BCA00842B32302000CA00E2
:2007080020004A08AA028039031DFF30AB3B912BF6302000AA07FF30AB3D2E3020002A0251
:2007280022302B3B03189C2B2E30AA002230AB0020002A081D002B081D00E925DC23DB2B40
:200748000A301D0000301D0020002C08F0002D08F100013034267008C9004808053A031D08
:20076800C52B49080319BA2BCA00BD2B0A302000CA0020004A08AC028039031DFF30AD3B49
:20078800C92BFF302000AC07AD3D173020002C0202302D3B0318D42B1730AC000230AD0056
:2007A80020002C081D002D081D00E925DC23080020002808031D9D2C2A08CC002B08CD0022
:2007C80010301D0027301D004C08F0004D08F100003034267008CE0010301D0027301D0015
:2007E8004C08F0004D08F100013034267008CC007108CD00E8301D0003301D004C08F00089
:200808004D08F100003034267008CF00E8301D0003301D004C08F0004D08F100013034261F
:200828007008CC007108CD0064301D0000301D004C08F0004D08F100003034267008D000CC
:2008480064301D0000301D004C08F0004D08F100013034267008CC007108CD000A301D009C
:2008680000301D004C08F0004D08F100003034267008D1006A301D0002301D00A1301D00D2
:200888008A301D000B301D00B02175301D0002301D0020005108F000163012267008D2000E
:2008A8007108D300C530D2078930D33D52081D0053081D000B301D00B02120004E080319A3
:2008C8006D2C2E301D00CD301D0086301D008F21742C2E301D0079301D0089301D008F21F8
:2008E80042301D0020004F08F0004C3012267008D2007108D3008130D2078630D33D520806
:200908001D0053081D008F2156301D0020005008F0004C3012267008D2007108D300813084
:20092800D2078630D33D52081D0053081D008F21432D20002C08CC002D08CD00E8301D00AA
:2009480003301D004C08F0004D08F100003034267008CE00E8301D0003301D004C08F0001C
:200968004D08F100013034267008CC007108CD0064301D0000301D004C08F0004D08F1008C
:20098800003034267008CF0064301D0000301D004C08F0004D08F100013034267008CC0027
:2009A8007108CD000A301D0000301D004C08F0004D08F100003034267008D0000A301D0092
:2009C80000301D004C08F0004D08F100013034267008CC007108CD004E080319FB2C2E302C
:2009E8001D00CD301D0086301D008F21022D2E301D0079301D0089301D008F2142301D00B0
:200A080020004F08F0004C3012267008D2007108D3008130D2078630D33D52081D005308FB
:200A28001D008F2156301D0020005008F0004C3012267008D2007108D3008130D20786304C
:200A4800D33D52081D0053081D008F216A301D0020004C08D2004D08D3004C301D000030F1
:200A68001D0032308400203085001F268130D2078630D33D52081D0053081D008F2108005A
:200A8800193084002030850023000D26C6301D0053202000B803380A03195E2D360884004A
:200AA80037088500003F1D006F202000B60A0319B70A4D2D6320080019308400203085001B
:200AC80023000D26C7301D0053202000B803380A03197C2D38081D0096202000360884005A
:200AE8003708850070081A00B60A0319B70A692D6320080064302000BA002000BA033A0A4B
:200B08000319942D1B301D0020301D0001301D0060252000BB1B942D01301D003720812D3E
:200B28000800243084002030850023000D267E25200041081D0042081D0043081D00442541
:200B48007E250800303084002030850024000D261230D000D1014D08D2004C08D3004F0849
:200B6800D4004E08D50030301D0020301D0006301D009525080020002808031DCB2D5B307C
:200B88001D008D301D0003301D009525D22D5E301D008D301D0003301D0095250800200096
:200BA8001600D60001301D0040301D0000301D001D00A62500301D0040301D0020005608D9
:200BC8001D0000301D00A625080020001600CD001600CC00CF014D08D0004C08D100D201FE
:200BE8002808031D012E2030CE002E301D0020301D0005301D0095250C2E40302000CE00C4
:200C0800D3012E301D0020301D0006301D009525080016001900880B0D2E080084018501EB
:200C28008515031070188407840CF00C850B152E0408F1000800F001F10110301D00031035
:200C4800001C2A2E423FF007413FF13DF10CF00C013F890C813F800C810B232E433108007F
:200C68001D00011D402EF11F3F2EF009F109F00A0319F10A402E011184018501811C4F2E9D
:200C8800413F891F4F2E04308106423F0402C23F413F053BC13F10301D000314F00DF10D35
:200CA800840D850D433F8402423F853B0318612E433F8407423F853D7010810B512E4131C9
:200CC800011C6A2E0408F0000508F100011D712EF009F109F00A0319F10A43310800FF0120
:200CE800FE012000A00106302000AA002730AB002630AC000230AD00080000340034E034C5
:200D0800F834FC34FE34FE343F341F341F341F343F34FE34FE34FC34F834E03400340034F0
:200D28000034FE34FF34FF34FF34FF340034003400340034003400340034FF34FF34FF3474
:200D4800FF34FE34003400347F34FF34FF34FF34FF340034003400340034003400340034D3
:200D6800FF34FF34FF34FF347F3400340034003407341F343F347F347F34FC34F834F83461
:200D8800F834FC347F347F343F341F34073400340034003400340034003480348034C034F4
:200DA800F034F834FE34FF34FF34FF34FF3400340034003400340034003400343E341F34AC
:200DC8001F340F34073407340334FF34FF34FF34FF34FF3400340034003400340034003491
:200DE80000340034003400340034003400340034FF34FF34FF34FF34FF34003400340034B0
:200E080000340034003400340034003400340034003400340034FF34FF34FF34FF34FF348F
:200E2800003400340034003400340034C034F034FC34FC34FE347F343F341F341F341F34A9
:200E48003F347F34FE34FE34FC34F034C034003400340134013403340334033400340034D9
:200E6800003400348034C034F034FF34FF34FF347F341F3400340034003400348034C0341F
:200E8800E034F834FC34FE34FF347F343F341F340F3407340134003400340034E034FC3469
:200EA800FE34FF34FF34FF34FF34FF34FB34F834F834F834F834F834F834F834F834F8343E
:200EC80000340034C034F034FC34FE34FE347F343F341F341F341F343F34FE34FE34FC34D0
:200EE800F834E034003400340034003400340134013401340034F034F034F034F834FC340B
:200F0800FF34BF34BF340F34073400340034003480348034C034C034C034003401340134B4
:200F28000134013403340734FF34FF34FF34FE34F8340034003403340F341F343F347F347B
:200F48007F34FC34F834F834F834FC347E347F343F341F340F34033400340034003400347D
:200F680000340034003400348034C034F034FC34FF34FF34FF34FF34FF3400340034003402
:200F88000034003400348034E034F834FE34FF343F340F340734FF34FF34FF34FF34FF3464
:200FA800003400340034F034FC34FE34FF34FF34EF34E334E034E034E034E034FF34FF34B1
:200FC800FF34FF34FF34E034E034E03403340334033403340334033403340334033403340E
:200FE8000334FF34FF34FF34FF34FF340334033403340034003400348034FC34FF34FF3428
:20100800FF34FF341F341F341F341F341F341F341F341F341F3400340034003470347F3484
:20102800FF34FF34FF347F3438343C343E343E347E34FE34FC34F834F034E03400340034BC
:2010480080348034C034C034C03400340034003400340034003400340134FF34FF34FF340A
:20106800FF34FF34003403340F341F343F347F347F34FC34F834F834F834F834FC347F3465
:201088007F343F340F340734003400340034C034F034F834FC34FE343F341F341F341F34F6
:2010A8007F34FF34FE34FC34F834C034003400340034FE34FF34FF34FF34FF34E034F034EE
:2010C800F834F834F834F834F934F134E134C03480340034003400347F34FF34FF34FF3461
:2010E800FF340334013400340034003401340334FF34FF34FF34FF34FE34003400340034A7
:2011080003340F343F347F347F34FC34F834F834F834FC34FE347F343F341F340F3401346D
:20112800003400341F341F341F341F341F341F341F341F341F341F34DF34FF34FF34FF3455
:20114800FF347F341F3400340034003400340034003400340034C034F034FC34FF34FF3400
:201168007F340F340334003400340034003400340034003400340034E034FE34FF34FF34BA
:20118800FF341F34013400340034003400340034003400340034003400340034FC34FF34ED
:2011A800FF34FF34FF34033400340034003400340034003400340034003400340034E03407
:2011C800F834FC34FE34FE343F341F341F341F343F34FF34FE34FC34F834E034003400342B
:2011E8000034003407341F34BF34FF34FF34F834F034F034F034F834FF34FF34BF341F3428
:201208000734003400340034F834FE34FF34FF34FF34073403340134013401340334073475
:20122800FF34FF34FF34FE34F8340034003403340F341F343F347F347E34FC34F834F8341A
:20124800F834FC34FE347F343F341F340F34033400348034F034F834FC34FE347E343F3446
:201268001F341F341F341F343E34FE34FC34F834F034C034003400347F34FF34FF34FF344E
:20128800FF34C034803400340034003400348034C034FF34FF34FF34FF34FE34003400348D
:2012A8000134033487348F348F341F341F341F341F341F340F340734FF34FF34FF34FF3490
:2012C8003F340034003403341F343F347F347F34FE34F834F834F834F8347C347F343F3410
:2012E8001F340F340334003400340034003400340034003400340034003400340034003475
:20130800003400340034003400340034003400340034003400340034003400340034003485
:20132800003400340034003400340034003400340034003400340034003400340034003465
:20134800003400340034003400340034003400340034003400340034003400340034003445
:20136800003400340034003400340034003400340034003400340034003400340034003425
:2013880000340034F834FE34FE340734033403340734FE34FE34F83400340F343F343F347C
:2013A80070346034603470343F343F340F34003400347034383438341C34FF34FF34FF34BF
:2013C800003400340034003400340034003400347F347F347F340034003400340C340E342E
:2013E8000F34073403348334C734FF34FE343C340034603470347C347E346F346734633406
:2014080061346034603400340C340E340F34C334C334E334FF34FE343C3400340034183480
:201428003834783470346034603471343F343F340E3400340034C034E03438341E34FF3492
:20144800FF34FF34003400340E340F340D340C340C340C347F347F347F340C340C34003463
:20146800C034FC34FF347F3463346334E334E334C334803400341834383478347034603483
:20148800603470343F343F340F340034F834FE34FE34C73463346334E734EF34C634043486
:2014A80000340F343F343F3470346034603470343F343F340F34003403340334033403341E
:2014C800C334F334FB343F340F34073400340034003478347F347F34073400340034003441
:2014E800003400341C343E34FF34E734C334C334E734FF343E341C3400341E343F347F34C2
:2015080071346034603471347F343F341E3400347834FE34FE348734033403348734FE347F
:20152800FE34F8340034103439347B3473346334633471343F343F340F3400340034003472
:201548000034003400340034003400340034003400340034003400347034703470340034F3
:20156800003400340034003400340034C034F834FE34FF343F343F34FF34FE34F834C0343B
:201588000034003400348034F034FE34FF347F341F341D341C341C341D341F347F34FF34E9
:2015A800FE34F0348034FF34FF34FF34FF34C734C734C734C734C734C7340734FF34FF34CA
:2015C800FF34FF340134013401340134013401340034FF34FF34FF34FF343F34FC34F03498
:2015E800C0348034E034FC343F34FF34FF34FF34FF34FF34FF34FF34FF3400340134073448
:201608000F340F34073401340034FF34FF34FF34FF34003400340034003400340034003460
:20162800003400342F3400340034003400340734003407340034003414347F3414347F34FF
:201648001434003424342A347F342A341234003423341334083464346234003436344934A2
:20166800553422345034003400340534033400340034003400341C342234413400340034D4
:201688000034413422341C3400340034143408343E34083414340034083408343E340834B7
:2016A8000834003400340034A0346034003400340834083408340834083400340034603452
:2016C80060340034003400342034103408340434023400343E345134493445343E340034C9
:2016E800003442347F344034003400344234613451344934463400342134413445344B342C
:20170800313400341834143412347F34103400342734453445344534393400343C344A34CE
:201728004934493430340034013471340934053403340034363449344934493436340034D5
:2017480006344934493429341E34003400343634363400340034003400345634363400346A
:201768000034003408341434223441340034003414341434143414341434003400344134FD
:20178800223414340834003402340134513409340634003432344934593451343E340034FD
:2017A8007C341234113412347C3400347F34493449344934363400343E3441344134413423
:2017C800223400347F344134413422341C3400347F34493449344934413400347F3409343D
:2017E80009340934013400343E344134493449347A3400347F340834083408347F340034ED
:20180800003441347F344134003400342034403441343F34013400347F34083414342234E1
:20182800413400347F34403440344034403400347F3402340C3402347F3400347F3404340F
:20184800083410347F3400343E344134413441343E3400347F3409340934093406340034CA
:201868003E344134513421345E3400347F34093419342934463400344634493449344934A0
:2018880031340034013401347F340134013400343F344034403440343F3400341F342034CF
:2018A800403420341F3400343F344034383440343F34003463341434083414346334003435
:2018C80007340834703408340734003461345134493445344334003400347F3441344134AE
:2018E8000034003455342A3455342A34553400340034413441347F34003400340434023446
:20190800013402340434003440344034403440344034003400340134023404340034003431
:201928002034543454345434783400347F3448344434443438340034383444344434443440
:201948002034003438344434443448347F34003438345434543454341834003408347E34C6
:2019680009340134023400341834A434A434A4347C3400347F34083404340434783400348C
:20198800003444347D344034003400344034803484347D34003400347F3410342834443442
:2019A80000340034003441347F344034003400347C34043418340434783400347C34083447
:2019C8000434043478340034383444344434443438340034FC342434243424341834003483
:2019E8001834243424341834FC3400347C3408340434043408340034483454345434543453
:201A08002034003404343F3444344034203400343C344034403420347C3400341C342034E3
:201A2800403420341C3400343C344034303440343C340034443428341034283444340034D2
:201A48001C34A034A034A0347C3400344434643454344C34443414341434143414341434D6
:201A68001434AE34003410344034B0348134FF34A134A634A8341F34C834D3340034D5345E
:201A88008034D934F134DA340234DB3440348D34143420340234A434A6342E34AF344D3486
:1A1AA80048347A3400344B3448347A3400340134D03405340134D134053404
:020000040001F9
:04000E00E43FFF3F8D
:00000001FF
