:0600000000008031102811
:200008008A014E018C1E0F28443040019C004E018C124001A00A0900A322F03086002F3021
:200028008700703051018D0092015101101F19288B170B177E01B8014C201B22A8200030C0
:200048001D001D00A6301D0082301D0001301D00032100301D0007301D00B4301D008230D6
:200068001D0000301D0003214001A101400121081D0092214001A10A783021061D002106CE
:2000880021029C22091C3A288030A1003A280800AF3040019E0062309F004E018C129616AD
:2000A800080040011600A2002008A300400123082002A40022082402031C5A280800400100
:2000C8001600A3001600A200B0302307A40024081D00332240012208F039A400A40E0F3032
:2000E800A405241624081D003322400122080F39A400241424081D003322080040011600EB
:20010800A200A3010830400123020318A728B0302307A50025081D00332201301D00332218
:2001280010301D0033224001A4018030400124020318A42822081D0040224001A40A9928C8
:200148004001A30A86280800C8301D005520AE301D00332200301D00332210301D003322C5
:2001680040301D00332281301D00332201301D003322A1301D003322C8301D003322A6304C
:200188001D003322A8301D0033223F301D003322D3301D00332200301D003322D5301D0081
:2001A800332280301D003322D9301D003322F1301D003322DA301D00332212301D00332282
:2001C800DB301D00332240301D00332220301D00332202301D0033228D301D0033221430DF
:2001E8001D003322A4301D003322A6301D003322AF301D00332200301D00822008000C3073
:2002080084002030850045018A224001290884002A088500003F031991292908AF002A08B7
:20022800B000A90A0319AA0A2F0884003008850020300002AC002B0803192629013A031918
:200248004D2909297E304001270203190310031C2F29A701A80A400127081D0028081D00FC
:20026800632040012C08F00006308F227008AF007108B000A230AF078A30B03D2F081D00D4
:2002880030081D0006301D004D2206304001A707092978304001270203190310031C562909
:2002A800A701A80A400127081D0028081D00632040012C08AD00AE010430AD35AE0D890B49
:2002C800FC33B2302D07AF0084302E3DB0002F081D0030081D0008301D004D224001270876
:2002E8001D0001302807AF002F081D006320083040012D07AF0000012E3DB000B230AF07E3
:200308008430B03D2F081D0030081D0008301D004D2208304001A70709290800400116000F
:20032800A700A90104304001290203181A2A04301D0002302907AE002E081D0063204001ED
:20034800A8017830400128061D002806280216000318803A891B172AAB0127082807AD00D9
:2003680000302D061D002D062D0216000318803A891F102A78302D061D002D062D02160056
:200388000318803A891B102AAA01083040012A020318102A2908F00078308F227008AE005D
:2003A8007108AF002A08F0000F308F227008B0007108B1003008AE073108AF3D2D08B000B2
:2003C8000330B037890BFD333008AE078039031DFF30AF3DD230AE078230AF3D2E08840047
:2003E8002F088500003FAC00AB362D080739AE00CA302E07AE0082307F3DAF002E08840096
:200408002F0885002C080005AE002E0803190D2AAB174001AA0AC92940012B081D0040220C
:1A0428004001A80AA5294001A90A96290800FC304001960503309104080066
:020006000800F0
:200442004001111003204001911078301D006D220800400111100320400191140320400108
:200462001114080040011600B200212200301D006D22400132081D006D222A220800400169
:200482001600B200212240301D006D22400132081D006D222A22080005308400203085002A
:2004A20043018A22212240301D006D224001A403240A03196B2A2208A5002308A600A20AD8
:2004C2000319A30A2508840026088500003F1D006D22572A2A22080040011600B3000830EB
:2004E200B4004001B31F772A1114792A4001111003204001911403204001B3359110B40BB3
:20050200722A1114032040019114032040019110080016001900880B8A2A08008401850179
:200522008515031070188407840CF00C850B922A0408F10008000308811B013A41310919A6
:20054200FE390800FF01FE010800483465346C346C346F342C34203477346F3472346C3413
:2005620064342134003464346934793463346F346D34703469346C3465347234403467346C
:200582006D34613469346C342E3463346F346D34003480344034203410340834043402340B
:2005A2000134003400340034003400340034003400340034003400340034003400340034F8
:2005C2000334C03400340334F83400340F34C03400341F34FC34003400340034003407342A
:2005E200E03400340734FC3400343F34C0340034FF34FF34803400340F34E0340734E03483
:2006020000340334FE3400347F34C0340134FF34FF34E03400347F34F8340F34E034003413
:200622000334FE340034FF34C0340334FF34FF34F0340034FF34FC340F34E03400340734D6
:20064200FE340034FF34C0340334FF34FF34F8340134FF34FE340F34C03400340734FF34CF
:200662000134FF34C03400343F34FF34F8340334FB34FE340F34C03400340F34FF34013468
:20068200FF34C03400343F34FF34FC340734F334FE340734803400340F34FF340334FF3490
:2006A200C03400343F34EF34FC340734F334FE340034003400341F34FF340334FF34C03436
:2006C20000347F34E734FC340734F334FE340734003400341F34FF340734FF34C034003493
:2006E2007F34C334FC340734E734FC340F34803400343F34FF340734FF34C0340034FF34FE
:20070200C334FC340334C734F8341F34803400343F34FF348734FF34C0340034FF34C33431
:20072200FC340134CF34F0341F34C03400347F34FF348F34FF34C0340034FF348334F83496
:2007420000341F34C0343F34C03400347E34FF348F34FF34C0340134FF348334F834003433
:200762003F34F0343F34C0340034FE34FF349F347F34C0340134FF340734F03400343F34F8
:20078200FC343F3480340034FC34FF349F347F34E0340134FF340734F03400340F34FC3461
:2007A2007F3480340134FC34FF34BF347F34E0340334FF340F34E0340334C334FE347F34AA
:2007C20080340134F834FF34BE347F34E0340334FE341F34C0340F348334FE347F348034D3
:2007E2000334F8347F34FE347F34E0340334FE347F3480341F340334FE347F3480340334BE
:20080200F0347F34FC347F34F0340734FF34FF3400343F340334FE34FF3480340734F03401
:200822007F34FC347F34F0340734FF34FE3400347E340734FC34FF3400340734E0347F34A2
:20084200F8347F34F0340734FF34F0340034FE340734FC34FF3400340F34E0347F34F83493
:200862003F34F8340F34FC3400340034FE340F34F834FF3400340F34C0343F34F0343F34B3
:20088200FC340F34FC3400340034FE341F34F034FE3400341F34C0343F34F0343F34FC34BB
:2008A2000F34F83400340034FE343F34E034FE3400343F3480343F34E0341F34FF340F34C9
:2008C200F83400340034FE34FF34C034FE3400343F3400341F34E0341F34FF341F34F034B8
:2008E200003400347F34FF348034FC3400347F3400341F34C0340F34FE341F34E034003452
:2009020000347F34FE3400347C340034FC3400340F34C0340734FC341F34C03400340034EF
:200922003F34F834003438340034F8340034073480340134F8341F340034003400340F3460
:20094200E03400340034003400340034003400340034003400340034003400340034003475
:20096200003400340034003400340034003400340034003400340034003400340034003435
:200982000034003400340034F83400340034003400340034003400343334303400340034BA
:2009A2000034003410340C34063410340C34063400340034003400340034003400340034B1
:2009C20000344034C03478344034C03478344034003404343F34043404343F340434043413
:2009E2000034003470348834FC340834303400340034003418342034FF3421341E34003413
:200A02000034F0340834F0340034E034183400340034003421341C3403341E3421341E3417
:200A220000340034F0340834883470340034003400341E342134233424341934273421349D
:200A42001034103416340E3400340034003400340034003400340034003400340034003410
:200A62000034003400340034E03418340434023400340034003400340734183420344034B7
:200A820000340034023404341834E034003400340034003440342034183407340034003497
:200AA2000034403440348034F03480344034403400340234023401340F34013402340234EB
:200AC2000034003400340034F03400340034003400340134013401341F34013401340134BF
:200AE2000034003400340034003400340034003400348034B0347034003400340034003414
:200B020000340034003400340034003400340034003400340134013401340134013401348D
:200B2200013400340034003400340034003400340034003430343034003400340034003412
:200B42000034003400340034003480346034183404340034603418340634013400340034D8
:200B620000340034E0341034083408341034E034003400340F3410342034203410340F34C5
:200B82000034003410341034F83400340034003400340034203420343F342034203400343C
:200BA200003400347034083408340834883470340034003430342834243422342134303484
:200BC2000034003430340834883488344834303400340034183420342034203411340E347C
:200BE200003400340034C03420341034F83400340034003407340434243424343F34243415
:200C020000340034F8340834883488340834083400340034193421342034203411340E34D9
:200C220000340034E03410348834883418340034003400340F3411342034203411340E34DB
:200C420000340034383408340834C8343834083400340034003400343F34003400340034C3
:200C620000340034703488340834083488347034003400341C3422342134213422341C3474
:200C820000340034E0341034083408341034E03400340034003431342234223411340F348D
:200CA2000034003400340034C034C034003400340034003400340034303430340034003412
:200CC200003400340034003480340034003400340034003400348034603400340034003472
:200CE20000340034003480344034203410340834003400340134023404340834103420347B
:200D02000034403440344034403440344034403400340434043404340434043404340434B5
:200D220000340034083410342034403480340034003400342034103408340434023401343A
:200D42000034003470344834083408340834F034003400340034003430343634013400342A
:200D62000034C0343034C8342834E8341034E03400340734183427342434233414340B34CD
:200D8200003400340034C0343834E03400340034003420343C342334023402342734383457
:200DA20020340834F83488348834883470340034003420343F3420342034203411340E34EB
:200DC2000034C03430340834083408340834383400340734183420342034203410340834F2
:200DE20000340834F8340834083408341034E034003420343F3420342034203410340F34CB
:200E020000340834F83488348834E83408341034003420343F342034203423342034183486
:200E220000340834F83488348834E83408341034003420343F3420340034033400340034DE
:200E42000034C0343034083408340834383400340034073418342034203422341E3402346F
:200E620000340834F8340834003400340834F834083420343F3421340134013421343F343E
:200E82002034003408340834F83408340834003400340034203420343F3420342034003419
:200EA20000340034003408340834F834083408340034C0348034803480347F340034003419
:200EC20000340834F8348834C034283418340834003420343F342034013426343834203442
:200EE20000340834F83408340034003400340034003420343F342034203420342034303499
:200F020000340834F834F8340034F834F8340834003420343F3400343F3400343F342034A2
:200F220000340834F8343034C03400340834F834083420343F3420340034073418343F349A
:200F42000034E03410340834083408341034E03400340F34103420342034203410340F34B9
:200F620000340834F8340834083408340834F034003420343F34213401340134013400349C
:200F82000034E03410340834083408341034E03400340F34183424342434383450344F34D1
:200FA20000340834F83488348834883488347034003420343F342034003403340C343034A1
:200FC2002034003470348834083408340834383400340034383420342134213422341C348F
:200FE2000034183408340834F83408340834183400340034003420343F34203400340034E8
:2010020000340834F8340834003400340834F834083400341F3420342034203420341F34C0
:20102200003408347834883400340034C8343834083400340034073438340E340134003410
:201042000034F83408340034F83400340834F834003403343C340734003407343C340334CA
:20106200003408341834683480348034683418340834203430342C34033403342C34303440
:20108200203408343834C8340034C8343834083400340034003420343F342034003400345F
:2010A20000341034083408340834C8343834083400342034383426342134203420341834C7
:2010C2000034003400340034FE3402340234023400340034003400347F344034403440348B
:2010E200003400340C343034C0340034003400340034003400340034013406343834C034B3
:2011020000340034023402340234FE3400340034003400344034403440347F34003400344A
:2011220000340034003404340234023402340434003400340034003400340034003400345F
:201142000034003400340034003400340034003400348034803480348034803480348034CD
:201162008034003402340234043400340034003400340034003400340034003400340034A5
:201182000034003400348034803480348034003400340034193424342234223422343F342B
:2011A20020340834F83400348034803400340034003400343F3411342034203411340E341E
:2011C20000340034003400348034803480340034003400340E3411342034203420341134BD
:2011E2000034003400340034803480348834F834003400340E3411342034203410343F347F
:2012020020340034003480348034803480340034003400341F3422342234223422341334B2
:201222000034003480348034F03488348834883418340034203420343F342034203400340D
:2012420000340034003480348034803480348034003400346B3494349434943493346034B2
:2012620000340834F83400348034803480340034003420343F3421340034003420343F34CD
:201282002034003480349834983400340034003400340034203420343F342034203400347D
:2012A2000034003400340034803498349834003400340034C0348034803480347F3400347D
:2012C20000340834F83400340034803480348034003420343F34243402342D34303420344A
:2012E2000034003408340834F83400340034003400340034203420343F34203420340034E5
:2013020000348034803480348034803480348034003420343F34203400343F34203400342D
:201322003F348034803400348034803480340034003420343F3421340034003420343F34CD
:2013420020340034003480348034803480340034003400341F3420342034203420341F346D
:201362000034803480340034803480340034003400348034FF34A1342034203411340E34AC
:2013820000340034003400348034803480348034003400340E34113420342034A034FF340D
:2013A200803480348034803400348034803480340034203420343F342134203400340134AA
:2013C20000340034003480348034803480348034003400343334243424342434243419346F
:2013E2000034003480348034E03480348034003400340034003400341F342034203400346C
:2014020000348034803400340034003480348034003400341F3420342034203410343F34BC
:20142200203480348034803400340034803480348034003401340E343034083406340134FC
:201442000034803480340034803400348034803480340F3430340C3403340C3430340F34B1
:201462000034003480348034003480348034803400340034203431342E340E3431342034CC
:20148200003480348034803400340034803480348034803481348E347034183406340134EC
:2014A2000034003480348034803480348034803400340034213430342C34223421343034FA
:2014C2000034003400340034003480347C3402340234003400340034003400343F3440344B
:2014E20040340034003400340034FF340034003400340034003400340034FF34003400346C
:2015020000340034023402347C3480340034003400340034403440343F34003400340034CA
:20152200003400340634013401340234023404340434003400340034003400340034003455
:2015420000340034003400340034003400340034003400342F340034003400340034073413
:20156200003407340034003414347F3414347F341434003424342A347F342A3412340034DF
:201582002334133408346434623400343634493455342234503400340034053403340034B7
:2015A2000034003400341C3422344134003400340034413422341C340034003414340834CF
:2015C2003E34083414340034083408343E3408340834003400340034A03460340034003411
:2015E200083408340834083408340034003460346034003400340034203410340834043485
:20160200023400343E345134493445343E340034003442347F344034003400344234613487
:2016220051344934463400342134413445344B34313400341834143412347F341034003498
:201642002734453445344534393400343C344A344934493430340034013471340934053451
:201662000334003436344934493449343634003406344934493429341E34003400343634C9
:201682003634003400340034003456343634003400340034083414342234413400340034C7
:2016A2001434143414341434143400340034413422341434083400340234013451340934A8
:2016C2000634003432344934593451343E3400347C341234113412347C3400347F3449346A
:2016E20049344934363400343E34413441344134223400347F344134413422341C3400347E
:201702007F34493449344934413400347F34093409340934013400343E3441344934493440
:201722007A3400347F340834083408347F340034003441347F344134003400342034403476
:2017420041343F34013400347F34083414342234413400347F344034403440344034003449
:201762007F3402340C3402347F3400347F340434083410347F3400343E34413441344134FE
:201782003E3400347F34093409340934063400343E344134513421345E3400347F34093452
:2017A2001934293446340034463449344934493431340034013401347F340134013400348A
:2017C2003F344034403440343F3400341F342034403420341F3400343F34403438344034D4
:2017E2003F3400346334143408341434633400340734083470340834073400346134513432
:20180200493445344334003400347F34413441340034003455342A3455342A345534003461
:201822000034413441347F3400340034043402340134023404340034403440344034403458
:20184200403400340034013402340434003400342034543454345434783400347F344834A4
:20186200443444343834003438344434443444342034003438344434443448347F340034BB
:2018820038345434543454341834003408347E3409340134023400341834A434A434A43424
:2018A2007C3400347F3408340434043478340034003444347D3440340034003440348034A2
:2018C20084347D34003400347F3410342834443400340034003441347F34403400340034CA
:2018E2007C34043418340434783400347C340834043404347834003438344434443444348A
:2019020038340034FC34243424342434183400341834243424341834FC3400347C340834D5
:20192200043404340834003448345434543454342034003404343F3444344034203400340A
:201942003C344034403420347C3400341C342034403420341C3400343C3440343034403449
:201962003C3400344434283410342834443400341C34A034A034A0347C34003444346434E1
:1219820054344C34443414341434143414341434143423
:020000040001F9
:0A000E009C3FFF3F9F3FFF3FFF3F75
:00000001FF
